:030000000204F205
:03000B000203E20B
:03001300020736AB
:030023000203BD18
:03002B00020423A9
:10002E00C0E0C0D0C000C001C002E4F539F53AF519
:10003E003BF53CF53D7A20E534A2E779047831E6CC
:10004E0033F608D9FA79057839E636D4F608D9F9AF
:10005E00DAE5D002D001D000D0D0D0E022C0E0C08E
:10006E00D0C000C001C002E4F539F53AF53BF53CCD
:10007E00F53D7A20E534A2E779047831E633F608C7
:10008E00D9FA79057839C0D0E6243320E70224D096
:10009E0020E30224FDD0D033F608D9EADAD6D00216
:1000AE00D001D000D0D0D0E022C0E0C0D0C000C07F
:1000BE0001C0027A207905C3783DE613C0D030E73F
:1000CE000224D030E30224FDF618D0D0D9EC790406
:1000DE007834E613F618D9FADADBD002D001D00064
:1000EE00D0D0D0E022C0E0C0D0E5312535F531E5E5
:1000FE00323536F532E5333537F533E5343538F507
:10010E0034D0D0D0E022C0E0C0D0C3E5319535F573
:10011E0031E5329536F532E5339537F533E53495DD
:10012E0038F534D0D0D0E022C0E0C0D0C3E5319550
:10013E0035E5329536E5339537E53495389200D06E
:10014E00D0D0E022C0E0C0D0C3E5359531E536957C
:10015E0032E5379533E53895349200D0D0D0E02291
:10016E00C0E0C0D0C200C3E53595317014E53695B8
:10017E0032700EE53795337008E53895347002D23B
:10018E0000D0D0D0E02212016E20000302015222D4
:10019E0012016E20000302013622C0E0C0F0C0D072
:1001AE00C000C001C002C003E5318535F0A4F8A936
:1001BE00F0E5328535F0A429F9E435F0FAE531851C
:1001CE0036F0A429F9E5F03AFAE433FBE533853548
:1001DE00F0A42AFAE5F03BFBE5328536F0A42AFAC4
:1001EE00E5F03BFBE5318537F0A42AFAE5F03BFB61
:1001FE00E5348535F0A42BFBE5338536F0A42BFBD7
:10020E00E5328537F0A42BFBE5318538F0A42BFBC6
:10021E008B348A3389328831D003D002D001D0009A
:10022E00D0D0D0F0D0E022C0E0C0D0C000C001C01D
:10023E0002C003C0047C20E4F8F9FAFBC3E53133B5
:10024E00F531E53233F532E53333F533E53433F555
:10025E0034E833F8E933F9EA33FAEB33FBC3E895C4
:10026E0035E99536EA9537EB95384013E89535F82C
:10027E00E99536F9EA9537FAEB9538FB433101DC0F
:10028E00BBD004D003D002D001D000D0D0D0E02219
:10029E00C0E0E8C4540F44301204DCE8540F44307C
:1002AE001204DCD0E022E8B440005005C394308044
:1002BE0003C3943722C2A078011204AFE5F0C454F0
:1002CE00F0D2E7F81204AFE95403FF78551204AFE9
:0902DE00E9FED2A08F3F8E3E2202
:1002E700C00078B10000D8FCD00022C000C001795E
:1002F7002D78A6D8FED9FADAF6D001D00022D2930B
:100307001202E7C29322A2E792B5A2E692B4A2E54F
:1003170092B6A2E492B21203051202E7A2E392B5E3
:10032700A2E292B4A2E192B6A2E092B2120305222F
:10033700D29102030DC29102030DC293C29274338C
:1003470012033C743312033C743212033C742812B8
:10035700033C740C12033C740112033CC0027A0282
:100367001202F2D00222E4936006120337A380F64A
:10037700224440448002033CC0E0E8C4540F4430A8
:10038700120337E8540F4430120337D0E0222020FD
:1003970020002000416C61726D2054656D702061F2
:1003A700743A0043006F6E006F666600C0F9A4B030
:1003B700999282F88090309804C298B2A5D0D0D094
:1003C700E032E58954F04401F589758CEA758AE8CD
:1003D70075F4EA75F2E8D2A9D28C22B2B73275C8A1
:1003E7000075CDA975CC9A75CBA975CA9AE4F54263
:1003F700F543F552F552D2ADD2CA22A2E09283A2BA
:10040700E19285A2E29287A2E392C4A2E492C5A2F6
:10041700E59284A2E69286A2E792A722C2CFC0E025
:10042700C0D0D282D280D281E54FB4000BE54C1206
:100437000402C282054F8020B4010BE54D1204026D
:10044700C280054F8012B4020CE54E120402C2812D
:10045700754F008003754F000551C3E55195535003
:1004670004D2A68004C2A680000542E542700205B8
:1004770043E542B4E807E543B4030280030204A559
:10048700D201E5522401D4F552E5442499D4953993
:100497005007300304B28CD202E4F542F543D0D0C2
:1004A700D0E032D2A2C2A32279007A08E833F892C8
:1004B700A1D2A3A2A2E933F9C2A3DAF02279DE78A6
:1004C700A6D8FED9FA438780759852759B00759A0E
:1004D700F4759B1E223099FDC299F59922E4936029
:1004E700061204DCA380F6220D0A0075817F120331
:1004F700C91203E575E60075E700758E11D2AF12D4
:100507000341D2ACD2AAC28AC2ACD2CAC28CD2012F
:10051700D20375D7007400D4F54A755100D2A012E2
:1005270004C41204AA754F00754430754F00755006
:1005370000C0E0740814120378D0E0C000784A12B3
:10054700037FD000C0E074021412037AD0E0C00029
:10055700A85012037FD000C0E074041412037AD0AD
:10056700E0C000A85212037FD00075F0001202C34A
:10057700D4F54A12071D12065E9003B3E546540FE1
:1005870093F54CE546C4540F93F54DE547540F9347
:10059700F54E9004EF1204E4300106C201E55080E5
:1005A70003020538B4000F75530020A40630A4FDDC
:1005B700755001020659B401297553FFC3C200756E
:1005C70031967532007533007534008548358500DE
:1005D7003675370075380012015220000375500236
:1005E7008070B40210C375530A743CD495525003FB
:1005F700755003805DB4032B7553FF755200C2001D
:100607007531DC75320075330075340085483585E2
:1006170000367537007538001201522000037550F7
:1006270004802FB4041075530A7445D4C3955250EF
:1006370003755005801CB405137553007460D47599
:100647005200C395484003755000800675530075E6
:10065700500002053880FE853E31853F32753300F4
:1006670075340075359A753601753700753800127F
:1006770001A87535FF753603753700753800120206
:10068700357535967536007537007538001201A82F
:100697007535987536087537007538001200F3758B
:1006A70035647536007537007538001202358531A7
:1006B7004885324912002E853946853A47C000A839
:1006C7003A12029ED000C000A83912029ED0002222
:1006D700853E31853F3275330075340075359A751F
:1006E70036017537007538001201A87535FF753664
:1006F70003753700753800120235753511753601E7
:1007070075370075380012011412002EC000A83981
:1007170012029ED00022C000C001C0027A6479FA9A
:1007270078A6D8FED9FADAF6D002D001D00022C0D6
:10073700E0C0D020821FC0027A321202F2D002201B
:1007470082133082FDE544B49904740080022401C9
:10075700D4F544802020841DC0027A321202F2D0E0
:10076700022084113084FDE544B4000474998002AA
:100777002499D4F544C0E0740114120378D0E0C082
:1007870083C082C0E090039512036DD0E0D082D081
:1007970083C0E0740114120378D0E0C000A84412AB
:1007A700037FD000C0027A641202F2D00220A7832E
:1007B700C0027A321202F2D00220A70530A7FD80CC
:1007C7000302073AD0D0D0E032D2E5945750022442
:0A07D70027223098FDC298E5992210
:00000001FF
